:10780000758A00758CFDC28DD235C082C083C0D010
:10781000C0E0C007E54AC4540FFF900EF0E0B4008A
:1078200029A3E0B4001204F0EFA3F09016277440EF
:10783000F0901603E0547FF0900EF2E0B5071DD0F3
:1078400007D0E0D0D0D083D0823214F0C3900EF3B2
:10785000E033F0901603E092E7F080E3FF04540F6A
:10786000F07583008F82E0900EF3F0901603E044F1
:0A78700080F0900EF07420F080C547
:0478F0000000000094
:0304DB00027800A4
:00000001FF
